:1000000004308A00862C00000A108A100A11820728
:1000100028340C34013406340A108A100A1182077D
:10002000313432343334343435343634373438348C
:1000300039342A3430342334C6244D10C4205310AC
:10004000D420D222C6205300D324532AC5264110DF
:100050004F234600CD32E434E3306F10A53AAF129F
:100060007500541DA53A4310481DA53AA51200017C
:100070004539F237A0296537F337F2100000311DFA
:10008000533A61397410321D493774106D00331DB5
:10009000513A6410CD326410A812F51400014937AA
:1000A000F432723B61366F10A8366937291D0001A2
:1000B000CE3A6D10CD32E434E337E5393A003430CE
:1000C000840083130008031972280230F800F70136
:1000D000F70B6828F80B67289730F700F70B6E28A6
:1000E000800B652808003B1877288611782886152C
:1000F000831686118312BB187F28061280280616E5
:100100008316061283123B198728861288288616C2
:10011000831686128312BB198F28061390280617A0
:1001200083160613000083120615831606119828FD
:100130009928831206118316061183120800BC0148
:10014000831686150030831286190130BC0483168D
:10015000061600308312061A0130F7000310F70D5F
:100160007708BC048316861600308312861A013085
:10017000F700F70DF70DFC30F7057708BC04831680
:10018000061700308312061B0130F700F70DF70D3C
:10019000F70DF830F7057708BC043C08F8000800B4
:1001A0008316061106108610831206108316061099
:1001B0008615061686160617831286148316861071
:1001C00000008312061583160611000083129F207B
:1001D0007808BB000611831606110000831206156D
:1001E00083160611F32883129F207808BA0006119F
:1001F00083160611861106128612061383123B0E11
:10020000F700F030F70577083A04F8007808BA00EC
:10021000BA1F0C298316D828B808031D1129061007
:100220001229061483160610000083128610831606
:100230008610000083120611831606118312390EF0
:10024000BA000F30BA053A08BB00732039080F39DD
:10025000BA00BB00732008008316861106128612AE
:100260000613061106108610831206108316061058
:1002700083128610831686108312061183160611C8
:100280000F308312B4005F200130AB002B08033C19
:10029000031C52290330BB0073200530B4005F20DB
:1002A000AB0A46290230BB0073200530B4005F2042
:1002B000AB012B08033C031C66292B080420AC006F
:1002C000B8012C08B900D020AB0A59298A110A12AA
:1002D0009A2C8A110A129B2C350B6F2972294030F7
:1002E000B6007329B60101303402B60736088038EB
:1002F000B700B8013708B900D02008003308073A22
:1003000003198C290B3A03199129063A03199929E3
:10031000023A03199F29A4290130B400B5006C21C9
:10032000A929B8010130B900D0200230B4005F2003
:10033000A9290130B4000230B5006C21A929B80107
:100340001030B900D020A9290130B8003308B90015
:10035000D02008000B08AE008B13831603178C17F0
:100360000C140000000083120C087F390319F129D6
:100370000313AF0003170D080313B00003170F0892
:100380000313B1002F08B3007E21300803178D003E
:100390000313310803178F0083168C170C14000009
:1003A000000083120C0D0E0D7F390319F129031380
:1003B000AF0003170D080313B00003170F08031352
:1003C000B1002F08B3007E21300803178D000313FE
:1003D000310803178F008D0A03198F0A0313AD2903
:1003E00003170313AE1B8B1708000B08AF008B130A
:1003F000831603178C170C14000000000318272A1B
:1004000083120C087F390313B00003170D08031380
:10041000B10003170F080313B2003008B3007E21A8
:10042000310803178D000313320803178F0083165A
:100430008C170C140000000083120313AE0B212A4A
:10044000242A83160317272A462A831603178312A2
:100450000C0D0E0D7F390313B00003170D080313A5
:10046000B10003170F080313B2003008B3007E2158
:10047000310803178D000313320803178F008D0A0C
:1004800003198F0A03100313AE0BF829AF1B8B1748
:1004900008003108F80130020318512A3008F7002B
:1004A0005D2AF7010830B200B00DF70D3108770270
:1004B0000318F700F80DB20B542A080078082E082C
:1004C000B0006430B10049227708AE0078083030BF
:1004D000031D712AAF1C782AAF19782A2F1A2030F1
:1004E000742AAF112F122F14F8077808B3007E2159
:1004F0002E08B0000A30B10049227708AE00780813
:100500003030031D892AAF198D2A2F1C8D2A2F1AEE
:100510002030F8077808B3007E213030AE072E086F
:10052000B3007E210800AB01A00A2008213C03187B
:10053000142B23080319A32A013A0319A92A033A01
:100540000319AF2AB42ADE3083168800831288008C
:10055000B42ABE308316880083128800B42A7E3005
:100560008316880083128800211CC02A08081E39BF
:100570001E3C031DBF2A21102208AB00A201132B31
:1005800008081E391E3C03190E2B08080239031DEA
:10059000CB2AAC01DF2A08080439031DD22A013016
:1005A000AC00DF2A08080839031DD92A0230AC0044
:1005B000DF2A08081039031DDF2A0330AC002C089D
:1005C000AD000330AE00F701F8012D0803102E181E
:1005D000F707F70CF80CAE18F707F70CF80C2E1904
:1005E000F707F70CF80CAE19F707F70CF80C2E1AF2
:1005F000F707F70CF80CAE1AF707F70CF80C2E1BE0
:10060000F707F70CF80CAE1BF707F70CF80C2308EC
:1006100078070C20F800A2002114132BA30A23084A
:10062000033C0319A301A001FE3083168800831246
:100630002B08F8000800AF01AD012D08073C031C92
:10064000652BAE0108182F2BAE0A2E08643C031848
:100650002D2BA1140030F800672B2E2B222B1330EA
:10066000F700F70B312B342B0818472B2D08073CCC
:10067000B0000130F7003008F8000319432B0310D5
:10068000F70DF80B3F2B7708FF3AAF05632B2D08CA
:10069000073CB0000130F7003008F8000319542B74
:1006A0000310F70DF80B502B7708AF04081C632BD1
:1006B000AE0A2E08643C0318612BA1140030F80028
:1006C000672B622B562BAD0A1D2B2F08F800080054
:1006D000A901AB0128082B020318402C0C30B300F1
:1006E0007E2101302B07AD002A3003178D0000302A
:1006F0008F00031008300313AE00F5212D08AE0063
:100700001B30AF005E222F30B3007E212808AE00E0
:100710001B30AF005E22A110831608108312081050
:100720001930B4005F2008141330F700F70B962B34
:10073000992B831608141A30F700F70B9D2B000035
:1007400083120818B42B3430F700F70BA52BA82B15
:100750000000081CB42B2030F700F70BAD2BB02B9A
:1007600000000130F800B62B0030F800F80803193B
:100770001F2C1B237808A5001B231B237808A4002B
:100780001B231B237808A6002908A90AAD000B0823
:10079000F7008B132D0803178D000313240803178C
:1007A0008C0083168C130C1555308D00AA308D00EB
:1007B0008C148C18D92B0C117708831203138B041B
:1007C0002908A90AAD000B08F7008B132D080317A1
:1007D0008D000313250803178C0083168C130C154A
:1007E00055308D00AA308D008C148C18F52B0C110F
:1007F0007708831203138B040130B4000230B50074
:100800006C215430B3007E213A30B3007E2124089D
:10081000AE001B30AF005E22333003178D00003076
:100820008F00031004300313AE00F5212508AE003D
:100830001B30AF005E222530B3007E212B2C01300F
:10084000B4000230B5006C21383003178D00003041
:100850008F000313AA21013028022B0203183E2C1B
:10086000AC0127082C0203183E2CF030AD00FA3002
:10087000B4005F20AD0B372CAC0A312CAB0A6A2BCD
:100880000C30B3007E210130B400B5006C211C3067
:1008900003178D0000308F000313AA210130B4002C
:1008A0000230B5006C21243003178D0000308F001A
:1008B0000313AA21AD012D08023C031C772C8316DB
:1008C0008613831286170430AE00FA30B4005F201E
:1008D000AE0B652C83168613831286130230AE008E
:1008E000FA30B4005F20AE0B702CAD0A5B2C2830C0
:1008F000AE00FA30B4005F20AE0B792C0C30B300A0
:100900007E216300812C8A110A12D02C0130A700AD
:10091000A800A90183161F149F141F159F110730EB
:100920009C0083131F3083058312A0012110A201B4
:10093000A3012C2969298316811386138312861338
:100940000C30B3007E210130B400B5006C213F3083
:1009500003178D0000308F000313AA210130B4006B
:100960000230B5006C21473003178D0000308F0036
:1009700003100B300313AE00F5212808AE001B3026
:10098000AF005E222930B3007E2193227808AA00AE
:10099000AA080319C52C2A08313C031DD12C682B49
:1009A000002D2A08323C031DE92C0C30B3007E21B7
:1009B0004F3003178D0000308F000313AA219322BC
:1009C0007808AA00AA080319DF2C30302A02A700F1
:1009D000002D2A08333C031D002D0C30B3007E216E
:1009E000583003178D0000308F000313AA21932283
:1009F0007808AA00AA080319F72C30302A02A800A8
:040A0000A02C6300C3
:02400E00723FFF
:00000001FF
;PIC16F877A
;CRC=2146  CREATED="15-jan-26 00:05"
